:020000040800F2
:1000000000800020FD020008510300085103000891
:1000100051030008510300085103000800000000CC
:100020000000000000000000000000005103000874
:100030005103000800000000510300088901000876
:100040005103000851030008510300085103000840
:100050005103000851030008510300085103000830
:100060005103000851030008510300085103000820
:100070005103000851030008510300085103000810
:100080005103000851030008510300085103000800
:1000900051030008510300085103000851030008F0
:1000A00051030008510300085103000851030008E0
:1000B00051030008510300085103000851030008D0
:1000C00051030008510300085103000851030008C0
:1000D00051030008510300085103000851030008B0
:1000E00051030008510300085103000851030008A0
:1000F0005103000851030008510300085103000890
:100100000000000000000000000000005103000893
:10011000510300085103000851030008510300086F
:10012000510300085103000851030008510300085F
:100130005103000851030008000000000000000007
:10014000510300085103000851030008000000009B
:10015000000000000000000000000000000000009F
:1001600000000000000000005103000851030008D7
:100170005103000800000000000000000000000023
:0801800000000000510300081B
:10018800074B1A88642A02D001321A80704700226D
:100198001A80044B9A8A92B282F480729A827047CB
:1001A80004000020000800480E4B5A6942F400225F
:1001B8005A610D4B4FF480321A600C4B1A68642355
:1001C800B2FBF3F3B3F1807F00D3FEE75A1E084B6E
:1001D8005A60084AF02182F8231000229A60072208
:1001E8001A60F2E7001002400008004800000020F2
:1001F80010E000E000ED00E0394BD3F8882042F42D
:100208007002C3F88820374B1A6842F001021A605E
:100218005968354A0A405A601A6822F0847222F4F2
:1002280080321A601A6822F480221A605A6822F40E
:10023800FE025A60DA6A22F00F02DA62196B2B4A60
:1002480082B00A401A6300229A60009201921A68EA
:1002580042F4A0221A601A6802F400320192009A4D
:1002680001320092019A1AB9009AB2F5A06FF2D140
:100278001A6812F4003218BF01220192019A012A69
:1002880005D0174B4FF000629A6002B07047184AC9
:10029800122111605A685A605A685A605A6842F4C2
:1002A80080625A605A6822F47C125A605A6842F492
:1002B800E8125A601A6842F080721A601968094A8E
:1002C8008901FBD5516821F003015160516841F063
:1002D800020151605A6802F00C02082AFAD1D0E7EC
:1002E80000ED00E0001002400CC07FF8CCFC00FFDD
:1002F80000200240002100F004B80E4B5B58435028
:1003080004310D480D4B42189A42FFF4F6AF0C4ADF
:1003180000F003B8002342F8043B0A4B9A42FFF46A
:10032800F9AFFFF769FF00F011F8FFF73DFFFFF79E
:10033800FEBF0000BC0300080000002004000020ED
:100348000400002008000020FFF7FEBF70B50F4E24
:100358000F4D761BB61007D0043D0024013455F824
:10036800043F9847A642F9D10A4E0B4D761B00F080
:1003780015F8B61008D0043D0024013455F8043FA0
:100388009847A642F9D170BD70BD00BF00000000BB
:10039800000000000000000000000000F8B500BFE9
:1003A800F8BC08BC9E467047F8B500BFF8BC08BC4E
:0403B8009E467047A6
:0403BC0000A24A044D
:04000005080002FDF0
:00000001FF
